{
  "contractName": "RacingSocialClub",
  "abi": [
    {
      "inputs": [
        {
          "internalType": "string",
          "name": "baseURI",
          "type": "string"
        },
        {
          "internalType": "uint256",
          "name": "maxBatchSize_",
          "type": "uint256"
        },
        {
          "internalType": "uint256",
          "name": "collectionSize_",
          "type": "uint256"
        }
      ],
      "stateMutability": "nonpayable",
      "type": "constructor"
    },
    {
      "anonymous": false,
      "inputs": [
        {
          "indexed": true,
          "internalType": "address",
          "name": "owner",
          "type": "address"
        },
        {
          "indexed": true,
          "internalType": "address",
          "name": "approved",
          "type": "address"
        },
        {
          "indexed": true,
          "internalType": "uint256",
          "name": "tokenId",
          "type": "uint256"
        }
      ],
      "name": "Approval",
      "type": "event"
    },
    {
      "anonymous": false,
      "inputs": [
        {
          "indexed": true,
          "internalType": "address",
          "name": "owner",
          "type": "address"
        },
        {
          "indexed": true,
          "internalType": "address",
          "name": "operator",
          "type": "address"
        },
        {
          "indexed": false,
          "internalType": "bool",
          "name": "approved",
          "type": "bool"
        }
      ],
      "name": "ApprovalForAll",
      "type": "event"
    },
    {
      "anonymous": false,
      "inputs": [
        {
          "indexed": false,
          "internalType": "uint256",
          "name": "tokenId",
          "type": "uint256"
        },
        {
          "indexed": false,
          "internalType": "address",
          "name": "sender",
          "type": "address"
        }
      ],
      "name": "AssetMinted",
      "type": "event"
    },
    {
      "anonymous": false,
      "inputs": [
        {
          "indexed": true,
          "internalType": "address",
          "name": "previousOwner",
          "type": "address"
        },
        {
          "indexed": true,
          "internalType": "address",
          "name": "newOwner",
          "type": "address"
        }
      ],
      "name": "OwnershipTransferred",
      "type": "event"
    },
    {
      "anonymous": false,
      "inputs": [
        {
          "indexed": false,
          "internalType": "bool",
          "name": "isMintActive",
          "type": "bool"
        }
      ],
      "name": "SaleActivation",
      "type": "event"
    },
    {
      "anonymous": false,
      "inputs": [
        {
          "indexed": true,
          "internalType": "address",
          "name": "from",
          "type": "address"
        },
        {
          "indexed": true,
          "internalType": "address",
          "name": "to",
          "type": "address"
        },
        {
          "indexed": true,
          "internalType": "uint256",
          "name": "tokenId",
          "type": "uint256"
        }
      ],
      "name": "Transfer",
      "type": "event"
    },
    {
      "inputs": [],
      "name": "allowListMaxMint",
      "outputs": [
        {
          "internalType": "uint256",
          "name": "",
          "type": "uint256"
        }
      ],
      "stateMutability": "view",
      "type": "function"
    },
    {
      "inputs": [
        {
          "internalType": "address",
          "name": "to",
          "type": "address"
        },
        {
          "internalType": "uint256",
          "name": "tokenId",
          "type": "uint256"
        }
      ],
      "name": "approve",
      "outputs": [],
      "stateMutability": "nonpayable",
      "type": "function"
    },
    {
      "inputs": [
        {
          "internalType": "address",
          "name": "owner",
          "type": "address"
        }
      ],
      "name": "balanceOf",
      "outputs": [
        {
          "internalType": "uint256",
          "name": "",
          "type": "uint256"
        }
      ],
      "stateMutability": "view",
      "type": "function"
    },
    {
      "inputs": [
        {
          "internalType": "uint256",
          "name": "tokenId",
          "type": "uint256"
        }
      ],
      "name": "getApproved",
      "outputs": [
        {
          "internalType": "address",
          "name": "",
          "type": "address"
        }
      ],
      "stateMutability": "view",
      "type": "function"
    },
    {
      "inputs": [
        {
          "internalType": "address",
          "name": "owner",
          "type": "address"
        },
        {
          "internalType": "address",
          "name": "operator",
          "type": "address"
        }
      ],
      "name": "isApprovedForAll",
      "outputs": [
        {
          "internalType": "bool",
          "name": "",
          "type": "bool"
        }
      ],
      "stateMutability": "view",
      "type": "function"
    },
    {
      "inputs": [],
      "name": "isClosedMintForever",
      "outputs": [
        {
          "internalType": "bool",
          "name": "",
          "type": "bool"
        }
      ],
      "stateMutability": "view",
      "type": "function"
    },
    {
      "inputs": [],
      "name": "isMintActive",
      "outputs": [
        {
          "internalType": "bool",
          "name": "",
          "type": "bool"
        }
      ],
      "stateMutability": "view",
      "type": "function"
    },
    {
      "inputs": [],
      "name": "isPreSaleMintActive",
      "outputs": [
        {
          "internalType": "bool",
          "name": "",
          "type": "bool"
        }
      ],
      "stateMutability": "view",
      "type": "function"
    },
    {
      "inputs": [],
      "name": "isRaffleActive",
      "outputs": [
        {
          "internalType": "bool",
          "name": "",
          "type": "bool"
        }
      ],
      "stateMutability": "view",
      "type": "function"
    },
    {
      "inputs": [],
      "name": "isSellOpen",
      "outputs": [
        {
          "internalType": "bool",
          "name": "",
          "type": "bool"
        }
      ],
      "stateMutability": "view",
      "type": "function"
    },
    {
      "inputs": [],
      "name": "maxPerAddressDuringMint",
      "outputs": [
        {
          "internalType": "uint256",
          "name": "",
          "type": "uint256"
        }
      ],
      "stateMutability": "view",
      "type": "function"
    },
    {
      "inputs": [],
      "name": "maximumAllowedTokensPerPurchase",
      "outputs": [
        {
          "internalType": "uint256",
          "name": "",
          "type": "uint256"
        }
      ],
      "stateMutability": "view",
      "type": "function"
    },
    {
      "inputs": [],
      "name": "maximumAllowedTokensPerWallet",
      "outputs": [
        {
          "internalType": "uint256",
          "name": "",
          "type": "uint256"
        }
      ],
      "stateMutability": "view",
      "type": "function"
    },
    {
      "inputs": [],
      "name": "maximumMintSupply",
      "outputs": [
        {
          "internalType": "uint256",
          "name": "",
          "type": "uint256"
        }
      ],
      "stateMutability": "view",
      "type": "function"
    },
    {
      "inputs": [],
      "name": "mintPrice",
      "outputs": [
        {
          "internalType": "uint256",
          "name": "",
          "type": "uint256"
        }
      ],
      "stateMutability": "view",
      "type": "function"
    },
    {
      "inputs": [],
      "name": "name",
      "outputs": [
        {
          "internalType": "string",
          "name": "",
          "type": "string"
        }
      ],
      "stateMutability": "view",
      "type": "function"
    },
    {
      "inputs": [],
      "name": "nextOwnerToExplicitlySet",
      "outputs": [
        {
          "internalType": "uint256",
          "name": "",
          "type": "uint256"
        }
      ],
      "stateMutability": "view",
      "type": "function"
    },
    {
      "inputs": [],
      "name": "owner",
      "outputs": [
        {
          "internalType": "address",
          "name": "",
          "type": "address"
        }
      ],
      "stateMutability": "view",
      "type": "function"
    },
    {
      "inputs": [
        {
          "internalType": "uint256",
          "name": "tokenId",
          "type": "uint256"
        }
      ],
      "name": "ownerOf",
      "outputs": [
        {
          "internalType": "address",
          "name": "",
          "type": "address"
        }
      ],
      "stateMutability": "view",
      "type": "function"
    },
    {
      "inputs": [],
      "name": "preSaleMintPrice",
      "outputs": [
        {
          "internalType": "uint256",
          "name": "",
          "type": "uint256"
        }
      ],
      "stateMutability": "view",
      "type": "function"
    },
    {
      "inputs": [],
      "name": "raffleMintPrice",
      "outputs": [
        {
          "internalType": "uint256",
          "name": "",
          "type": "uint256"
        }
      ],
      "stateMutability": "view",
      "type": "function"
    },
    {
      "inputs": [],
      "name": "renounceOwnership",
      "outputs": [],
      "stateMutability": "nonpayable",
      "type": "function"
    },
    {
      "inputs": [],
      "name": "root",
      "outputs": [
        {
          "internalType": "bytes32",
          "name": "",
          "type": "bytes32"
        }
      ],
      "stateMutability": "view",
      "type": "function"
    },
    {
      "inputs": [
        {
          "internalType": "address",
          "name": "from",
          "type": "address"
        },
        {
          "internalType": "address",
          "name": "to",
          "type": "address"
        },
        {
          "internalType": "uint256",
          "name": "tokenId",
          "type": "uint256"
        }
      ],
      "name": "safeTransferFrom",
      "outputs": [],
      "stateMutability": "nonpayable",
      "type": "function"
    },
    {
      "inputs": [
        {
          "internalType": "address",
          "name": "from",
          "type": "address"
        },
        {
          "internalType": "address",
          "name": "to",
          "type": "address"
        },
        {
          "internalType": "uint256",
          "name": "tokenId",
          "type": "uint256"
        },
        {
          "internalType": "bytes",
          "name": "_data",
          "type": "bytes"
        }
      ],
      "name": "safeTransferFrom",
      "outputs": [],
      "stateMutability": "nonpayable",
      "type": "function"
    },
    {
      "inputs": [
        {
          "internalType": "address",
          "name": "operator",
          "type": "address"
        },
        {
          "internalType": "bool",
          "name": "approved",
          "type": "bool"
        }
      ],
      "name": "setApprovalForAll",
      "outputs": [],
      "stateMutability": "nonpayable",
      "type": "function"
    },
    {
      "inputs": [
        {
          "internalType": "bytes4",
          "name": "interfaceId",
          "type": "bytes4"
        }
      ],
      "name": "supportsInterface",
      "outputs": [
        {
          "internalType": "bool",
          "name": "",
          "type": "bool"
        }
      ],
      "stateMutability": "view",
      "type": "function"
    },
    {
      "inputs": [],
      "name": "symbol",
      "outputs": [
        {
          "internalType": "string",
          "name": "",
          "type": "string"
        }
      ],
      "stateMutability": "view",
      "type": "function"
    },
    {
      "inputs": [
        {
          "internalType": "uint256",
          "name": "index",
          "type": "uint256"
        }
      ],
      "name": "tokenByIndex",
      "outputs": [
        {
          "internalType": "uint256",
          "name": "",
          "type": "uint256"
        }
      ],
      "stateMutability": "view",
      "type": "function"
    },
    {
      "inputs": [
        {
          "internalType": "address",
          "name": "owner",
          "type": "address"
        },
        {
          "internalType": "uint256",
          "name": "index",
          "type": "uint256"
        }
      ],
      "name": "tokenOfOwnerByIndex",
      "outputs": [
        {
          "internalType": "uint256",
          "name": "",
          "type": "uint256"
        }
      ],
      "stateMutability": "view",
      "type": "function"
    },
    {
      "inputs": [
        {
          "internalType": "uint256",
          "name": "tokenId",
          "type": "uint256"
        }
      ],
      "name": "tokenURI",
      "outputs": [
        {
          "internalType": "string",
          "name": "",
          "type": "string"
        }
      ],
      "stateMutability": "view",
      "type": "function"
    },
    {
      "inputs": [],
      "name": "totalSupply",
      "outputs": [
        {
          "internalType": "uint256",
          "name": "",
          "type": "uint256"
        }
      ],
      "stateMutability": "view",
      "type": "function"
    },
    {
      "inputs": [
        {
          "internalType": "address",
          "name": "from",
          "type": "address"
        },
        {
          "internalType": "address",
          "name": "to",
          "type": "address"
        },
        {
          "internalType": "uint256",
          "name": "tokenId",
          "type": "uint256"
        }
      ],
      "name": "transferFrom",
      "outputs": [],
      "stateMutability": "nonpayable",
      "type": "function"
    },
    {
      "inputs": [
        {
          "internalType": "address",
          "name": "newOwner",
          "type": "address"
        }
      ],
      "name": "transferOwnership",
      "outputs": [],
      "stateMutability": "nonpayable",
      "type": "function"
    },
    {
      "inputs": [
        {
          "internalType": "uint256",
          "name": "_count",
          "type": "uint256"
        }
      ],
      "name": "setMaximumAllowedTokens",
      "outputs": [],
      "stateMutability": "nonpayable",
      "type": "function"
    },
    {
      "inputs": [
        {
          "internalType": "uint256",
          "name": "_count",
          "type": "uint256"
        }
      ],
      "name": "setMaximumAllowedTokensPerWallet",
      "outputs": [],
      "stateMutability": "nonpayable",
      "type": "function"
    },
    {
      "inputs": [
        {
          "internalType": "bool",
          "name": "val",
          "type": "bool"
        }
      ],
      "name": "setMintActive",
      "outputs": [],
      "stateMutability": "nonpayable",
      "type": "function"
    },
    {
      "inputs": [
        {
          "internalType": "uint256",
          "name": "maxMintSupply",
          "type": "uint256"
        }
      ],
      "name": "setMaxMintSupply",
      "outputs": [],
      "stateMutability": "nonpayable",
      "type": "function"
    },
    {
      "inputs": [
        {
          "internalType": "bool",
          "name": "_isRaffleActive",
          "type": "bool"
        }
      ],
      "name": "setRaffleActive",
      "outputs": [],
      "stateMutability": "nonpayable",
      "type": "function"
    },
    {
      "inputs": [
        {
          "internalType": "bool",
          "name": "_isPreSaleMintActive",
          "type": "bool"
        }
      ],
      "name": "setIsPreSaleMintActive",
      "outputs": [],
      "stateMutability": "nonpayable",
      "type": "function"
    },
    {
      "inputs": [
        {
          "internalType": "bool",
          "name": "_isSellOpen",
          "type": "bool"
        }
      ],
      "name": "setIsSellOpen",
      "outputs": [],
      "stateMutability": "nonpayable",
      "type": "function"
    },
    {
      "inputs": [
        {
          "internalType": "uint256",
          "name": "maxMint",
          "type": "uint256"
        }
      ],
      "name": "setAllowListMaxMint",
      "outputs": [],
      "stateMutability": "nonpayable",
      "type": "function"
    },
    {
      "inputs": [
        {
          "internalType": "address[]",
          "name": "addresses",
          "type": "address[]"
        }
      ],
      "name": "addToAllowList",
      "outputs": [],
      "stateMutability": "nonpayable",
      "type": "function"
    },
    {
      "inputs": [
        {
          "internalType": "address",
          "name": "addr",
          "type": "address"
        }
      ],
      "name": "checkIfOnAllowList",
      "outputs": [
        {
          "internalType": "bool",
          "name": "",
          "type": "bool"
        }
      ],
      "stateMutability": "view",
      "type": "function"
    },
    {
      "inputs": [
        {
          "internalType": "address[]",
          "name": "addresses",
          "type": "address[]"
        }
      ],
      "name": "removeFromAllowList",
      "outputs": [],
      "stateMutability": "nonpayable",
      "type": "function"
    },
    {
      "inputs": [
        {
          "internalType": "address",
          "name": "owner",
          "type": "address"
        }
      ],
      "name": "allowListClaimedBy",
      "outputs": [
        {
          "internalType": "uint256",
          "name": "",
          "type": "uint256"
        }
      ],
      "stateMutability": "view",
      "type": "function"
    },
    {
      "inputs": [
        {
          "internalType": "address",
          "name": "owner",
          "type": "address"
        }
      ],
      "name": "publicMintClaimed",
      "outputs": [
        {
          "internalType": "uint256",
          "name": "",
          "type": "uint256"
        }
      ],
      "stateMutability": "view",
      "type": "function"
    },
    {
      "inputs": [
        {
          "internalType": "uint256",
          "name": "val",
          "type": "uint256"
        }
      ],
      "name": "setReserveAtATime",
      "outputs": [],
      "stateMutability": "nonpayable",
      "type": "function"
    },
    {
      "inputs": [
        {
          "internalType": "uint256",
          "name": "val",
          "type": "uint256"
        }
      ],
      "name": "setMaxReserve",
      "outputs": [],
      "stateMutability": "nonpayable",
      "type": "function"
    },
    {
      "inputs": [
        {
          "internalType": "uint256",
          "name": "_price",
          "type": "uint256"
        }
      ],
      "name": "setMintPrice",
      "outputs": [],
      "stateMutability": "nonpayable",
      "type": "function"
    },
    {
      "inputs": [
        {
          "internalType": "uint256",
          "name": "_price",
          "type": "uint256"
        }
      ],
      "name": "setPreSaleMintPrice",
      "outputs": [],
      "stateMutability": "nonpayable",
      "type": "function"
    },
    {
      "inputs": [
        {
          "internalType": "uint256",
          "name": "_price",
          "type": "uint256"
        }
      ],
      "name": "setRaffleMintPrice",
      "outputs": [],
      "stateMutability": "nonpayable",
      "type": "function"
    },
    {
      "inputs": [
        {
          "internalType": "string",
          "name": "baseURI",
          "type": "string"
        }
      ],
      "name": "setBaseURI",
      "outputs": [],
      "stateMutability": "nonpayable",
      "type": "function"
    },
    {
      "inputs": [],
      "name": "getMaximumAllowedTokens",
      "outputs": [
        {
          "internalType": "uint256",
          "name": "",
          "type": "uint256"
        }
      ],
      "stateMutability": "view",
      "type": "function"
    },
    {
      "inputs": [],
      "name": "getMintPrice",
      "outputs": [
        {
          "internalType": "uint256",
          "name": "",
          "type": "uint256"
        }
      ],
      "stateMutability": "view",
      "type": "function"
    },
    {
      "inputs": [],
      "name": "getPreSaleMintPrice",
      "outputs": [
        {
          "internalType": "uint256",
          "name": "",
          "type": "uint256"
        }
      ],
      "stateMutability": "view",
      "type": "function"
    },
    {
      "inputs": [],
      "name": "getRaffleMintPrice",
      "outputs": [
        {
          "internalType": "uint256",
          "name": "",
          "type": "uint256"
        }
      ],
      "stateMutability": "view",
      "type": "function"
    },
    {
      "inputs": [],
      "name": "getIsClosedMintForever",
      "outputs": [
        {
          "internalType": "bool",
          "name": "",
          "type": "bool"
        }
      ],
      "stateMutability": "view",
      "type": "function"
    },
    {
      "inputs": [],
      "name": "setIsClosedMintForever",
      "outputs": [],
      "stateMutability": "nonpayable",
      "type": "function"
    },
    {
      "inputs": [
        {
          "internalType": "bytes32",
          "name": "_root",
          "type": "bytes32"
        }
      ],
      "name": "setRoot",
      "outputs": [],
      "stateMutability": "nonpayable",
      "type": "function"
    },
    {
      "inputs": [],
      "name": "getReserveAtATime",
      "outputs": [
        {
          "internalType": "uint256",
          "name": "",
          "type": "uint256"
        }
      ],
      "stateMutability": "view",
      "type": "function"
    },
    {
      "inputs": [],
      "name": "getTotalSupply",
      "outputs": [
        {
          "internalType": "uint256",
          "name": "",
          "type": "uint256"
        }
      ],
      "stateMutability": "view",
      "type": "function"
    },
    {
      "inputs": [],
      "name": "getRoot",
      "outputs": [
        {
          "internalType": "bytes32",
          "name": "",
          "type": "bytes32"
        }
      ],
      "stateMutability": "view",
      "type": "function"
    },
    {
      "inputs": [],
      "name": "getContractOwner",
      "outputs": [
        {
          "internalType": "address",
          "name": "",
          "type": "address"
        }
      ],
      "stateMutability": "view",
      "type": "function"
    },
    {
      "inputs": [],
      "name": "reserveNft",
      "outputs": [],
      "stateMutability": "nonpayable",
      "type": "function"
    },
    {
      "inputs": [
        {
          "internalType": "address",
          "name": "_walletAddress",
          "type": "address"
        },
        {
          "internalType": "uint256",
          "name": "_count",
          "type": "uint256"
        }
      ],
      "name": "reserveToCustomWallet",
      "outputs": [],
      "stateMutability": "nonpayable",
      "type": "function"
    },
    {
      "inputs": [
        {
          "internalType": "address",
          "name": "_to",
          "type": "address"
        },
        {
          "internalType": "uint256",
          "name": "_count",
          "type": "uint256"
        }
      ],
      "name": "mint",
      "outputs": [],
      "stateMutability": "payable",
      "type": "function"
    },
    {
      "inputs": [
        {
          "internalType": "uint256",
          "name": "_count",
          "type": "uint256"
        },
        {
          "internalType": "bytes32[]",
          "name": "_proof",
          "type": "bytes32[]"
        }
      ],
      "name": "raffleMint",
      "outputs": [],
      "stateMutability": "payable",
      "type": "function"
    },
    {
      "inputs": [
        {
          "internalType": "uint256",
          "name": "_count",
          "type": "uint256"
        }
      ],
      "name": "preSaleMint",
      "outputs": [],
      "stateMutability": "payable",
      "type": "function"
    },
    {
      "inputs": [
        {
          "internalType": "address",
          "name": "owner",
          "type": "address"
        }
      ],
      "name": "numberMinted",
      "outputs": [
        {
          "internalType": "uint256",
          "name": "",
          "type": "uint256"
        }
      ],
      "stateMutability": "view",
      "type": "function"
    },
    {
      "inputs": [
        {
          "internalType": "address",
          "name": "_owner",
          "type": "address"
        }
      ],
      "name": "walletOfOwner",
      "outputs": [
        {
          "internalType": "uint256[]",
          "name": "",
          "type": "uint256[]"
        }
      ],
      "stateMutability": "view",
      "type": "function"
    },
    {
      "inputs": [],
      "name": "withdraw",
      "outputs": [],
      "stateMutability": "nonpayable",
      "type": "function"
    }
  ],
  "bytecode": "0x60e0604052600080805560078190556702c68af0bb140000600a5567027f7d0bdb920000600b819055600c556032600d55600e556096600f556011805464ffffffffff19169055610d05601281905560138190556014556003601555601680546001600160a01b03191673bc5f78e02dc124d0ef5a6207b1c6384f826b413f1790553480156200008e57600080fd5b50604051620042e2380380620042e2833981016040819052620000b191620002ee565b604051806040016040528060128152602001712930b1b4b7339029b7b1b4b0b61021b63ab160711b8152506040518060400160405280600381526020016252534360e81b815250838360008111620001265760405162461bcd60e51b81526004016200011d906200041f565b60405180910390fd5b60008211620001495760405162461bcd60e51b81526004016200011d90620003d8565b83516200015e90600190602087019062000248565b5082516200017490600290602086019062000248565b5060a091909152608052506200019590506200018f620001ab565b620001af565b620001a08362000201565b5060c05250620004c0565b3390565b600880546001600160a01b038381166001600160a01b0319831681179093556040519116919082907f8be0079c531659141344cd1fd0a4f28419497f9722a3daafe3b4186f6b6457e090600090a35050565b336200020c62000239565b6001600160a01b0316146200022057600080fd5b80516200023590601090602084019062000248565b5050565b6008546001600160a01b031690565b82805462000256906200046d565b90600052602060002090601f0160209004810192826200027a5760008555620002c5565b82601f106200029557805160ff1916838001178555620002c5565b82800160010185558215620002c5579182015b82811115620002c5578251825591602001919060010190620002a8565b50620002d3929150620002d7565b5090565b5b80821115620002d35760008155600101620002d8565b60008060006060848603121562000303578283fd5b83516001600160401b03808211156200031a578485fd5b818601915086601f8301126200032e578485fd5b815181811115620003435762000343620004aa565b604051601f8201601f19908116603f011681019083821181831017156200036e576200036e620004aa565b816040528281526020935089848487010111156200038a578788fd5b8791505b82821015620003ad57848201840151818301850152908301906200038e565b82821115620003be57878484830101525b928801516040909801519299979850919695505050505050565b60208082526027908201527f455243373231413a206d61782062617463682073697a65206d757374206265206040820152666e6f6e7a65726f60c81b606082015260800190565b6020808252602e908201527f455243373231413a20636f6c6c656374696f6e206d757374206861766520612060408201526d6e6f6e7a65726f20737570706c7960901b606082015260800190565b6002810460018216806200048257607f821691505b60208210811415620004a457634e487b7160e01b600052602260045260246000fd5b50919050565b634e487b7160e01b600052604160045260246000fd5b60805160a05160c051613de062000502600039600081816112280152611bfe015260008181612587015281816125b101526129ba015260005050613de06000f3fe60806040526004361061041a5760003560e01c80637835c6351161021e578063c3ac4feb11610123578063ea6eb836116100ab578063f132dc291161007a578063f132dc2914610b4f578063f2fde38b14610b64578063f4a0a52814610b84578063f6c9d9e314610ba4578063f7cb9e5414610bc45761041a565b8063ea6eb83614610ae5578063ebf0c71714610b05578063ec7d099114610b1a578063ee1cc94414610b2f5761041a565b8063d7224ba0116100f2578063d7224ba014610a5b578063dab5f34014610a70578063dc33e68114610a90578063e7b62d9614610ab0578063e985e9c514610ac55761041a565b8063c3ac4feb146109f1578063c4e41b2214610a11578063c87b56dd14610a26578063cadf881814610a465761041a565b806398590a39116101a6578063a51312c811610175578063a51312c814610972578063a7f93ebd14610992578063ad06d758146109a7578063b88d4fde146109bc578063c3441646146109dc5761041a565b806398590a39146109085780639a3bf728146109285780639ccb0fea1461093d578063a22cb465146109525761041a565b80637f44ab2f116101ed5780637f44ab2f1461089f5780638bc35c2f146108b45780638da5cb5b146108c9578063932ecebc146108de57806395d89b41146108f35761041a565b80637835c635146108445780637890b2c9146108575780637a6685f11461086a5780637d26f4701461088a5761041a565b8063431adcb1116103245780635ca1e165116102ac578063715018a61161027b578063715018a6146107ba57806371e3500c146107cf5780637263cfe2146107e45780637389fbb71461080457806377b501b9146108245761041a565b80635ca1e165146107505780636352211e146107655780636817c76c1461078557806370a082311461079a5761041a565b80634dfea627116102f35780634dfea627146106bb5780634f6ccce7146106db57806355f804b3146106fb57806356a87caa1461071b5780635b92ac0d1461073b5761041a565b8063431adcb11461064f578063438b630014610664578063442890d5146106915780634d0550de146106a65761041a565b80632c1205f4116103a75780633ccfd60b116103765780633ccfd60b146105d25780633cfac570146105e75780633e8f09871461060757806340c10f191461061c57806342842e0e1461062f5761041a565b80632c1205f4146105525780632f57bcfe146105725780632f745c59146105925780633b9ee7e4146105b25761041a565b8063095ea7b3116103ee578063095ea7b3146104d157806318160ddd146104f357806321a911f81461050857806323b872dd1461051d5780632992b0b01461053d5761041a565b806208ffdd1461041f57806301ffc9a71461045557806306fdde0314610482578063081812fc146104a4575b600080fd5b34801561042b57600080fd5b5061043f61043a366004612d95565b610be4565b60405161044c91906131cd565b60405180910390f35b34801561046157600080fd5b50610475610470366004612f86565b610c35565b60405161044c91906131c2565b34801561048e57600080fd5b50610497610c96565b60405161044c91906131d6565b3480156104b057600080fd5b506104c46104bf366004612f6e565b610d28565b60405161044c919061312d565b3480156104dd57600080fd5b506104f16104ec366004612ebd565b610d6b565b005b3480156104ff57600080fd5b5061043f610e04565b34801561051457600080fd5b5061043f610e0a565b34801561052957600080fd5b506104f1610538366004612de1565b610e10565b34801561054957600080fd5b5061043f610e1b565b34801561055e57600080fd5b5061047561056d366004612d95565b610e21565b34801561057e57600080fd5b506104f161058d366004612f54565b610e3f565b34801561059e57600080fd5b5061043f6105ad366004612ebd565b610e6e565b3480156105be57600080fd5b506104f16105cd366004612f6e565b610f63565b3480156105de57600080fd5b506104f1610f84565b3480156105f357600080fd5b506104f1610602366004612f54565b611049565b34801561061357600080fd5b5061043f611081565b6104f161062a366004612ebd565b611087565b34801561063b57600080fd5b506104f161064a366004612de1565b6112ff565b34801561065b57600080fd5b5061047561131a565b34801561067057600080fd5b5061068461067f366004612d95565b61132b565b60405161044c919061317e565b34801561069d57600080fd5b506104c46113e8565b3480156106b257600080fd5b5061043f6113f7565b3480156106c757600080fd5b506104f16106d6366004612f6e565b6113fd565b3480156106e757600080fd5b5061043f6106f6366004612f6e565b61141e565b34801561070757600080fd5b506104f1610716366004612fbe565b61144a565b34801561072757600080fd5b506104f1610736366004612f6e565b611479565b34801561074757600080fd5b5061047561149a565b34801561075c57600080fd5b5061043f6114a8565b34801561077157600080fd5b506104c4610780366004612f6e565b6114ae565b34801561079157600080fd5b5061043f6114c0565b3480156107a657600080fd5b5061043f6107b5366004612d95565b6114c6565b3480156107c657600080fd5b506104f1611513565b3480156107db57600080fd5b506104f161155e565b3480156107f057600080fd5b506104f16107ff366004612ee6565b611624565b34801561081057600080fd5b506104f161081f366004612f6e565b6117e2565b34801561083057600080fd5b506104f161083f366004612ebd565b611803565b6104f1610852366004612f6e565b611886565b6104f1610865366004613003565b611a15565b34801561087657600080fd5b506104f1610885366004612f6e565b611bc5565b34801561089657600080fd5b50610475611be6565b3480156108ab57600080fd5b5061043f611bf6565b3480156108c057600080fd5b5061043f611bfc565b3480156108d557600080fd5b506104c4611c20565b3480156108ea57600080fd5b506104f1611c2f565b3480156108ff57600080fd5b50610497611c60565b34801561091457600080fd5b506104f1610923366004612f54565b611c6f565b34801561093457600080fd5b5061043f611cab565b34801561094957600080fd5b50610475611cb1565b34801561095e57600080fd5b506104f161096d366004612e94565b611cc0565b34801561097e57600080fd5b506104f161098d366004612ee6565b611d8e565b34801561099e57600080fd5b5061043f611e88565b3480156109b357600080fd5b5061043f611e8e565b3480156109c857600080fd5b506104f16109d7366004612e1c565b611eb3565b3480156109e857600080fd5b50610475611eec565b3480156109fd57600080fd5b506104f1610a0c366004612f6e565b611ef5565b348015610a1d57600080fd5b5061043f611f16565b348015610a3257600080fd5b50610497610a41366004612f6e565b611f20565b348015610a5257600080fd5b5061043f611fa3565b348015610a6757600080fd5b5061043f611fa9565b348015610a7c57600080fd5b506104f1610a8b366004612f6e565b611faf565b348015610a9c57600080fd5b5061043f610aab366004612d95565b611fd0565b348015610abc57600080fd5b5061043f611fdb565b348015610ad157600080fd5b50610475610ae0366004612daf565b611fe1565b348015610af157600080fd5b506104f1610b00366004612f6e565b61200f565b348015610b1157600080fd5b5061043f612030565b348015610b2657600080fd5b5061043f612036565b348015610b3b57600080fd5b506104f1610b4a366004612f54565b61203c565b348015610b5b57600080fd5b506104756120a6565b348015610b7057600080fd5b506104f1610b7f366004612d95565b6120b6565b348015610b9057600080fd5b506104f1610b9f366004612f6e565b612124565b348015610bb057600080fd5b506104f1610bbf366004612f6e565b612145565b348015610bd057600080fd5b5061043f610bdf366004612d95565b612166565b60006001600160a01b038216610c155760405162461bcd60e51b8152600401610c0c90613657565b60405180910390fd5b506001600160a01b0381166000908152601860205260409020545b919050565b60006001600160e01b031982166380ac58cd60e01b1480610c6657506001600160e01b03198216635b5e139f60e01b145b80610c8157506001600160e01b0319821663780e9d6360e01b145b80610c905750610c90826121aa565b92915050565b606060018054610ca590613ce8565b80601f0160208091040260200160405190810160405280929190818152602001828054610cd190613ce8565b8015610d1e5780601f10610cf357610100808354040283529160200191610d1e565b820191906000526020600020905b815481529060010190602001808311610d0157829003601f168201915b5050505050905090565b6000610d33826121c3565b610d4f5760405162461bcd60e51b8152600401610c0c90613b05565b506000908152600560205260409020546001600160a01b031690565b6000610d76826114ae565b9050806001600160a01b0316836001600160a01b03161415610daa5760405162461bcd60e51b8152600401610c0c906137cd565b806001600160a01b0316610dbc6121ca565b6001600160a01b03161480610dd85750610dd881610ae06121ca565b610df45760405162461bcd60e51b8152600401610c0c906134fd565b610dff8383836121ce565b505050565b60005490565b600b5490565b610dff83838361222a565b600c5490565b6001600160a01b031660009081526017602052604090205460ff1690565b33610e48611c20565b6001600160a01b031614610e5b57600080fd5b6011805460ff1916911515919091179055565b6000610e79836114c6565b8210610e975760405162461bcd60e51b8152600401610c0c906131e9565b6000610ea1610e04565b905060008060005b83811015610f4a576000818152600360209081526040918290208251808401909352546001600160a01b038116808452600160a01b9091046001600160401b03169183019190915215610efb57805192505b876001600160a01b0316836001600160a01b03161415610f375786841415610f2957509350610c9092505050565b83610f3381613d23565b9450505b5080610f4281613d23565b915050610ea9565b5060405162461bcd60e51b8152600401610c0c906139fa565b33610f6c611c20565b6001600160a01b031614610f7f57600080fd5b600b55565b33610f8d611c20565b6001600160a01b031614610fa057600080fd5b60165447906001600160a01b03166108fc612710610fbe8482613c47565b610fc89190613c33565b6040518115909202916000818181858888f19350505050158015610ff0573d6000803e3d6000fd5b50610ff9611c20565b6001600160a01b03166108fc612710611013846000613c47565b61101d9190613c33565b6040518115909202916000818181858888f19350505050158015611045573d6000803e3d6000fd5b5050565b33611052611c20565b6001600160a01b03161461106557600080fd5b60118054911515620100000262ff000019909216919091179055565b600c5481565b601254611092610e04565b11156110b05760405162461bcd60e51b8152600401610c0c90613407565b3233146110cf5760405162461bcd60e51b8152600401610c0c906134c6565b6110d7611c20565b6001600160a01b0316336001600160a01b03161461111657601154610100900460ff166111165760405162461bcd60e51b8152600401610c0c90613299565b61111e611c20565b6001600160a01b0316826001600160a01b03161461116b5760145481611143846114c6565b61114d9190613c1b565b111561116b5760405162461bcd60e51b8152600401610c0c9061338d565b60145433600090815260196020526040902054611189908390613c1b565b11156111a75760405162461bcd60e51b8152600401610c0c90613a48565b601254816111b3610e04565b6111bd9190613c1b565b11156111db5760405162461bcd60e51b8152600401610c0c9061379d565b6012546111e6610e04565b11156112045760405162461bcd60e51b8152600401610c0c90613996565b6013548111156112265760405162461bcd60e51b8152600401610c0c90613766565b7f00000000000000000000000000000000000000000000000000000000000000008161125133611fd0565b61125b9190613c1b565b11156112795760405162461bcd60e51b8152600401610c0c9061392f565b6011546301000000900460ff16156112a35760405162461bcd60e51b8152600401610c0c90613360565b80600a546112b19190613c47565b3410156112d05760405162461bcd60e51b8152600401610c0c906139c3565b33600090815260196020526040812080548392906112ef908490613c1b565b909155506110459050828261253c565b610dff83838360405180602001604052806000815250611eb3565b601154640100000000900460ff1681565b60606000611338836114c6565b90506000816001600160401b0381111561136257634e487b7160e01b600052604160045260246000fd5b60405190808252806020026020018201604052801561138b578160200160208202803683370190505b50905060005b828110156113e0576113a38582610e6e565b8282815181106113c357634e487b7160e01b600052603260045260246000fd5b6020908102919091010152806113d881613d23565b915050611391565b509392505050565b60006113f2611c20565b905090565b60125481565b33611406611c20565b6001600160a01b03161461141957600080fd5b601355565b6000611428610e04565b82106114465760405162461bcd60e51b8152600401610c0c906133c4565b5090565b33611453611c20565b6001600160a01b03161461146657600080fd5b8051611045906010906020840190612c6b565b33611482611c20565b6001600160a01b03161461149557600080fd5b600f55565b601154610100900460ff1681565b60095490565b60006114b982612556565b5192915050565b600a5481565b60006001600160a01b0382166114ee5760405162461bcd60e51b8152600401610c0c9061355a565b506001600160a01b03166000908152600460205260409020546001600160801b031690565b61151b6121ca565b6001600160a01b031661152c611c20565b6001600160a01b0316146115525760405162461bcd60e51b8152600401610c0c90613622565b61155c6000612668565b565b33611567611c20565b6001600160a01b03161461157a57600080fd5b600f54600e54111561159e5760405162461bcd60e51b8152600401610c0c9061322b565b601254600d546115ac610e04565b6115b69190613c1b565b11156115d45760405162461bcd60e51b8152600401610c0c9061379d565b6012546115df610e04565b11156115fd5760405162461bcd60e51b8152600401610c0c90613996565b600d54600e60008282546116119190613c1b565b9250508190555061155c33600d5461253c565b3361162d611c20565b6001600160a01b03161461164057600080fd5b60005b81811015610dff57600083838381811061166d57634e487b7160e01b600052603260045260246000fd5b90506020020160208101906116829190612d95565b6001600160a01b031614156116a95760405162461bcd60e51b8152600401610c0c906135eb565b6001601760008585858181106116cf57634e487b7160e01b600052603260045260246000fd5b90506020020160208101906116e49190612d95565b6001600160a01b0316815260208101919091526040016000908120805460ff19169215159290921790915560188185858581811061173257634e487b7160e01b600052603260045260246000fd5b90506020020160208101906117479190612d95565b6001600160a01b03166001600160a01b0316815260200190815260200160002054116117745760006117cf565b6018600084848481811061179857634e487b7160e01b600052603260045260246000fd5b90506020020160208101906117ad9190612d95565b6001600160a01b03166001600160a01b03168152602001908152602001600020545b50806117da81613d23565b915050611643565b336117eb611c20565b6001600160a01b0316146117fe57600080fd5b601255565b3361180c611c20565b6001600160a01b03161461181f57600080fd5b6012548161182b610e04565b6118359190613c1b565b11156118535760405162461bcd60e51b8152600401610c0c9061379d565b60125461185e610e04565b111561187c5760405162461bcd60e51b8152600401610c0c90613996565b611045828261253c565b601254611891610e04565b11156118af5760405162461bcd60e51b8152600401610c0c90613407565b60115462010000900460ff166118d75760405162461bcd60e51b8152600401610c0c9061395f565b3360009081526017602052604090205460ff166119065760405162461bcd60e51b8152600401610c0c90613262565b601254611911610e04565b1061192e5760405162461bcd60e51b8152600401610c0c90613ace565b6015548111156119505760405162461bcd60e51b8152600401610c0c90613b94565b6015543360009081526018602052604090205461196e908390613c1b565b111561198c5760405162461bcd60e51b8152600401610c0c90613a48565b80600b5461199a9190613c47565b3410156119b95760405162461bcd60e51b8152600401610c0c906139c3565b6011546301000000900460ff16156119e35760405162461bcd60e51b8152600401610c0c90613360565b3360009081526018602052604081208054839290611a02908490613c1b565b90915550611a129050338261253c565b50565b601254611a20610e04565b1115611a3e5760405162461bcd60e51b8152600401610c0c90613407565b600033604051602001611a5191906130e1565b60408051601f19818403018152919052805160209091012060115490915060ff16611a8e5760405162461bcd60e51b8152600401610c0c9061380f565b600954611a9d908390836126ba565b611ab95760405162461bcd60e51b8152600401610c0c906138c7565b601254611ac4610e04565b10611ae15760405162461bcd60e51b8152600401610c0c90613ace565b601554831115611b035760405162461bcd60e51b8152600401610c0c90613b94565b60155433600090815260186020526040902054611b21908590613c1b565b1115611b3f5760405162461bcd60e51b8152600401610c0c90613a48565b82600c54611b4d9190613c47565b341015611b6c5760405162461bcd60e51b8152600401610c0c906139c3565b6011546301000000900460ff1615611b965760405162461bcd60e51b8152600401610c0c90613360565b3360009081526018602052604081208054859290611bb5908490613c1b565b90915550610dff9050338461253c565b33611bce611c20565b6001600160a01b031614611be157600080fd5b601555565b6011546301000000900460ff1681565b60155481565b7f000000000000000000000000000000000000000000000000000000000000000081565b6008546001600160a01b031690565b33611c38611c20565b6001600160a01b031614611c4b57600080fd5b6011805463ff00000019166301000000179055565b606060028054610ca590613ce8565b33611c78611c20565b6001600160a01b031614611c8b57600080fd5b601180549115156401000000000264ff0000000019909216919091179055565b60135481565b60115462010000900460ff1681565b611cc86121ca565b6001600160a01b0316826001600160a01b03161415611cf95760405162461bcd60e51b8152600401610c0c906136dd565b8060066000611d066121ca565b6001600160a01b03908116825260208083019390935260409182016000908120918716808252919093529120805460ff191692151592909217909155611d4a6121ca565b6001600160a01b03167f17307eab39ab6107e8899845ad3d59bd9653f200f220920489ca2b5937696c3183604051611d8291906131c2565b60405180910390a35050565b33611d97611c20565b6001600160a01b031614611daa57600080fd5b60005b81811015610dff576000838383818110611dd757634e487b7160e01b600052603260045260246000fd5b9050602002016020810190611dec9190612d95565b6001600160a01b03161415611e135760405162461bcd60e51b8152600401610c0c906135eb565b600060176000858585818110611e3957634e487b7160e01b600052603260045260246000fd5b9050602002016020810190611e4e9190612d95565b6001600160a01b031681526020810191909152604001600020805460ff191691151591909117905580611e8081613d23565b915050611dad565b600a5490565b600033611e99611c20565b6001600160a01b031614611eac57600080fd5b5060135490565b611ebe84848461222a565b611eca848484846126d0565b611ee65760405162461bcd60e51b8152600401610c0c9061383d565b50505050565b60115460ff1681565b33611efe611c20565b6001600160a01b031614611f1157600080fd5b600c55565b60006113f2610e04565b6060611f2b826121c3565b611f475760405162461bcd60e51b8152600401610c0c9061368e565b6000611f516127ec565b90506000815111611f715760405180602001604052806000815250611f9c565b80611f7b846127fb565b604051602001611f8c9291906130fe565b6040516020818303038152906040525b9392505050565b60145481565b60075481565b33611fb8611c20565b6001600160a01b031614611fcb57600080fd5b600955565b6000610c9082612915565b600d5490565b6001600160a01b03918216600090815260066020908152604080832093909416825291909152205460ff1690565b33612018611c20565b6001600160a01b03161461202b57600080fd5b601455565b60095481565b600b5481565b33612045611c20565b6001600160a01b03161461205857600080fd5b6011805461ff001916610100831515021790556040517f58655b75d3df612fe99ead00dbf0812d415d35078fe06217a94c0818bb13967f9061209b9083906131c2565b60405180910390a150565b6011546301000000900460ff1690565b6120be6121ca565b6001600160a01b03166120cf611c20565b6001600160a01b0316146120f55760405162461bcd60e51b8152600401610c0c90613622565b6001600160a01b03811661211b5760405162461bcd60e51b8152600401610c0c906132d0565b611a1281612668565b3361212d611c20565b6001600160a01b03161461214057600080fd5b600a55565b3361214e611c20565b6001600160a01b03161461216157600080fd5b600d55565b60006001600160a01b03821661218e5760405162461bcd60e51b8152600401610c0c90613657565b506001600160a01b031660009081526019602052604090205490565b6001600160e01b031981166301ffc9a760e01b14919050565b6000541190565b3390565b60008281526005602052604080822080546001600160a01b0319166001600160a01b0387811691821790925591518593918516917f8c5be1e5ebec7d5bd14f71427d1e84f3dd0314c0f7b2291e5b200ac8c7c3b92591a4505050565b600061223582612556565b9050600081600001516001600160a01b031661224f6121ca565b6001600160a01b0316148061228457506122676121ca565b6001600160a01b031661227984610d28565b6001600160a01b0316145b806122985750815161229890610ae06121ca565b9050806122b75760405162461bcd60e51b8152600401610c0c90613714565b846001600160a01b031682600001516001600160a01b0316146122ec5760405162461bcd60e51b8152600401610c0c906135a5565b6001600160a01b0384166123125760405162461bcd60e51b8152600401610c0c90613430565b61231f8585856001611ee6565b61232f60008484600001516121ce565b6001600160a01b03851660009081526004602052604081208054600192906123619084906001600160801b0316613c66565b82546101009290920a6001600160801b038181021990931691831602179091556001600160a01b038616600090815260046020526040812080546001945090926123ad91859116613bf9565b82546001600160801b039182166101009390930a9283029190920219909116179055506040805180820182526001600160a01b0380871682526001600160401b03428116602080850191825260008981526003909152948520935184549151909216600160a01b0267ffffffffffffffff60a01b19929093166001600160a01b03199091161716179055612442846001613c1b565b6000818152600360205260409020549091506001600160a01b03166124e65761246a816121c3565b156124e65760408051808201825284516001600160a01b0390811682526020808701516001600160401b0390811682850190815260008781526003909352949091209251835494516001600160a01b031990951692169190911767ffffffffffffffff60a01b1916600160a01b93909116929092029190911790555b83856001600160a01b0316876001600160a01b03167fddf252ad1be2c89b69c2b068fc378daa952ba7f163c4a11628f55a4df523b3ef60405160405180910390a46125348686866001611ee6565b505050505050565b611045828260405180602001604052806000815250612969565b61255e612ceb565b612567826121c3565b6125835760405162461bcd60e51b8152600401610c0c90613316565b60007f000000000000000000000000000000000000000000000000000000000000000083106125e4576125d67f000000000000000000000000000000000000000000000000000000000000000084613c8e565b6125e1906001613c1b565b90505b825b81811061264f576000818152600360209081526040918290208251808401909352546001600160a01b038116808452600160a01b9091046001600160401b0316918301919091521561263c579250610c30915050565b508061264781613cd1565b9150506125e6565b5060405162461bcd60e51b8152600401610c0c90613a7f565b600880546001600160a01b038381166001600160a01b0319831681179093556040519116919082907f8be0079c531659141344cd1fd0a4f28419497f9722a3daafe3b4186f6b6457e090600090a35050565b6000826126c78584612bdb565b14949350505050565b60006126e4846001600160a01b0316612c4d565b156127e057836001600160a01b031663150b7a026127006121ca565b8786866040518563ffffffff1660e01b81526004016127229493929190613141565b602060405180830381600087803b15801561273c57600080fd5b505af192505050801561276c575060408051601f3d908101601f1916820190925261276991810190612fa2565b60015b6127c6573d80801561279a576040519150601f19603f3d011682016040523d82523d6000602084013e61279f565b606091505b5080516127be5760405162461bcd60e51b8152600401610c0c9061383d565b805181602001fd5b6001600160e01b031916630a85bd0160e11b1490506127e4565b5060015b949350505050565b606060108054610ca590613ce8565b60608161282057506040805180820190915260018152600360fc1b6020820152610c30565b8160005b811561284a578061283481613d23565b91506128439050600a83613c33565b9150612824565b6000816001600160401b0381111561287257634e487b7160e01b600052604160045260246000fd5b6040519080825280601f01601f19166020018201604052801561289c576020820181803683370190505b5090505b84156127e4576128b1600183613c8e565b91506128be600a86613d3e565b6128c9906030613c1b565b60f81b8183815181106128ec57634e487b7160e01b600052603260045260246000fd5b60200101906001600160f81b031916908160001a90535061290e600a86613c33565b94506128a0565b60006001600160a01b03821661293d5760405162461bcd60e51b8152600401610c0c90613475565b506001600160a01b0316600090815260046020526040902054600160801b90046001600160801b031690565b6000546001600160a01b0384166129925760405162461bcd60e51b8152600401610c0c906138ee565b61299b816121c3565b156129b85760405162461bcd60e51b8152600401610c0c90613890565b7f00000000000000000000000000000000000000000000000000000000000000008311156129f85760405162461bcd60e51b8152600401610c0c90613b52565b612a056000858386611ee6565b6001600160a01b0384166000908152600460209081526040918290208251808401845290546001600160801b038082168352600160801b9091041691810191909152815180830190925280519091908190612a61908790613bf9565b6001600160801b03168152602001858360200151612a7f9190613bf9565b6001600160801b039081169091526001600160a01b03808816600081815260046020908152604080832087518154988401518816600160801b029088166fffffffffffffffffffffffffffffffff199099169890981790961696909617909455845180860186529182526001600160401b034281168386019081528883526003909552948120915182549451909516600160a01b0267ffffffffffffffff60a01b19959093166001600160a01b031990941693909317939093161790915582905b85811015612bc95760405182906001600160a01b038916906000907fddf252ad1be2c89b69c2b068fc378daa952ba7f163c4a11628f55a4df523b3ef908290a4612b8d60008884886126d0565b612ba95760405162461bcd60e51b8152600401610c0c9061383d565b81612bb381613d23565b9250508080612bc190613d23565b915050612b40565b50600081815561253490878588611ee6565b600081815b84518110156113e0576000858281518110612c0b57634e487b7160e01b600052603260045260246000fd5b60200260200101519050808311612c2d57612c268382612c5c565b9250612c3a565b612c378184612c5c565b92505b5080612c4581613d23565b915050612be0565b6001600160a01b03163b151590565b60009182526020526040902090565b828054612c7790613ce8565b90600052602060002090601f016020900481019282612c995760008555612cdf565b82601f10612cb257805160ff1916838001178555612cdf565b82800160010185558215612cdf579182015b82811115612cdf578251825591602001919060010190612cc4565b50611446929150612d02565b604080518082019091526000808252602082015290565b5b808211156114465760008155600101612d03565b60006001600160401b03831115612d3057612d30613d7e565b612d43601f8401601f1916602001613bc9565b9050828152838383011115612d5757600080fd5b828260208301376000602084830101529392505050565b80356001600160a01b0381168114610c3057600080fd5b80358015158114610c3057600080fd5b600060208284031215612da6578081fd5b611f9c82612d6e565b60008060408385031215612dc1578081fd5b612dca83612d6e565b9150612dd860208401612d6e565b90509250929050565b600080600060608486031215612df5578081fd5b612dfe84612d6e565b9250612e0c60208501612d6e565b9150604084013590509250925092565b60008060008060808587031215612e31578081fd5b612e3a85612d6e565b9350612e4860208601612d6e565b92506040850135915060608501356001600160401b03811115612e69578182fd5b8501601f81018713612e79578182fd5b612e8887823560208401612d17565b91505092959194509250565b60008060408385031215612ea6578182fd5b612eaf83612d6e565b9150612dd860208401612d85565b60008060408385031215612ecf578182fd5b612ed883612d6e565b946020939093013593505050565b60008060208385031215612ef8578182fd5b82356001600160401b0380821115612f0e578384fd5b818501915085601f830112612f21578384fd5b813581811115612f2f578485fd5b8660208083028501011115612f42578485fd5b60209290920196919550909350505050565b600060208284031215612f65578081fd5b611f9c82612d85565b600060208284031215612f7f578081fd5b5035919050565b600060208284031215612f97578081fd5b8135611f9c81613d94565b600060208284031215612fb3578081fd5b8151611f9c81613d94565b600060208284031215612fcf578081fd5b81356001600160401b03811115612fe4578182fd5b8201601f81018413612ff4578182fd5b6127e484823560208401612d17565b60008060408385031215613015578182fd5b823591506020808401356001600160401b0380821115613033578384fd5b818601915086601f830112613046578384fd5b81358181111561305857613058613d7e565b8381029150613068848301613bc9565b8181528481019084860184860187018b1015613082578788fd5b8795505b838610156130a4578035835260019590950194918601918601613086565b508096505050505050509250929050565b600081518084526130cd816020860160208601613ca5565b601f01601f19169290920160200192915050565b60609190911b6bffffffffffffffffffffffff1916815260140190565b60008351613110818460208801613ca5565b835190830190613124818360208801613ca5565b01949350505050565b6001600160a01b0391909116815260200190565b6001600160a01b0385811682528416602082015260408101839052608060608201819052600090613174908301846130b5565b9695505050505050565b6020808252825182820181905260009190848201906040850190845b818110156131b65783518352928401929184019160010161319a565b50909695505050505050565b901515815260200190565b90815260200190565b600060208252611f9c60208301846130b5565b60208082526022908201527f455243373231413a206f776e657220696e646578206f7574206f6620626f756e604082015261647360f01b606082015260800190565b6020808252601b908201527f4d61782052657365727665732074616b656e20616c7265616479210000000000604082015260600190565b6020808252601d908201527f596f7520617265206e6f74206f6e2074686520416c6c6f77204c697374000000604082015260600190565b6020808252601d908201527f53616c65206973206e6f74206163746976652063757272656e746c792e000000604082015260600190565b60208082526026908201527f4f776e61626c653a206e6577206f776e657220697320746865207a65726f206160408201526564647265737360d01b606082015260800190565b6020808252602a908201527f455243373231413a206f776e657220717565727920666f72206e6f6e657869736040820152693a32b73a103a37b5b2b760b11b606082015260800190565b60208082526013908201527226b4b73a1021b637b9b2b2102337b932bb32b960691b604082015260600190565b60208082526018908201527f4d617820686f6c64696e672063617020726561636865642e0000000000000000604082015260600190565b60208082526023908201527f455243373231413a20676c6f62616c20696e646578206f7574206f6620626f756040820152626e647360e81b606082015260800190565b6020808252600f908201526e29b0b632903430b99032b73232b21760891b604082015260600190565b60208082526025908201527f455243373231413a207472616e7366657220746f20746865207a65726f206164604082015264647265737360d81b606082015260800190565b60208082526031908201527f455243373231413a206e756d626572206d696e74656420717565727920666f7260408201527020746865207a65726f206164647265737360781b606082015260800190565b6020808252601e908201527f5468652063616c6c657220697320616e6f7468657220636f6e74726163740000604082015260600190565b60208082526039908201527f455243373231413a20617070726f76652063616c6c6572206973206e6f74206f60408201527f776e6572206e6f7220617070726f76656420666f7220616c6c00000000000000606082015260800190565b6020808252602b908201527f455243373231413a2062616c616e636520717565727920666f7220746865207a60408201526a65726f206164647265737360a81b606082015260800190565b60208082526026908201527f455243373231413a207472616e736665722066726f6d20696e636f72726563746040820152651037bbb732b960d11b606082015260800190565b60208082526018908201527f43616e2774206164642061206e756c6c20616464726573730000000000000000604082015260600190565b6020808252818101527f4f776e61626c653a2063616c6c6572206973206e6f7420746865206f776e6572604082015260600190565b6020808252601e908201527f5a65726f2061646472657373206e6f74206f6e20416c6c6f77204c6973740000604082015260600190565b6020808252602f908201527f4552433732314d657461646174613a2055524920717565727920666f72206e6f60408201526e3732bc34b9ba32b73a103a37b5b2b760891b606082015260800190565b6020808252601a908201527f455243373231413a20617070726f766520746f2063616c6c6572000000000000604082015260600190565b60208082526032908201527f455243373231413a207472616e736665722063616c6c6572206973206e6f74206040820152711bdddb995c881b9bdc88185c1c1c9bdd995960721b606082015260800190565b6020808252601e908201527f45786365656473206d6178696d756d20616c6c6f77656420746f6b656e730000604082015260600190565b6020808252601690820152752a37ba30b61039bab838363c9032bc31b2b2b232b21760511b604082015260600190565b60208082526022908201527f455243373231413a20617070726f76616c20746f2063757272656e74206f776e60408201526132b960f11b606082015260800190565b602080825260149082015273526166666c65206973206e6f742061637469766560601b604082015260600190565b60208082526033908201527f455243373231413a207472616e7366657220746f206e6f6e204552433732315260408201527232b1b2b4bb32b91034b6b83632b6b2b73a32b960691b606082015260800190565b6020808252601d908201527f455243373231413a20746f6b656e20616c7265616479206d696e746564000000604082015260600190565b6020808252600d908201526c34b73b30b634b210383937b7b360991b604082015260600190565b60208082526021908201527f455243373231413a206d696e7420746f20746865207a65726f206164647265736040820152607360f81b606082015260800190565b60208082526016908201527563616e206e6f74206d696e742074686973206d616e7960501b604082015260600190565b6020808252601b908201527f5072652053616c65204d696e74206973206e6f74206163746976650000000000604082015260600190565b6020808252601390820152722a37ba30b61039bab838363c9039b832b73a1760691b604082015260600190565b6020808252601b908201527f496e7375666669656e742045544820616d6f756e742073656e742e0000000000604082015260600190565b6020808252602e908201527f455243373231413a20756e61626c6520746f2067657420746f6b656e206f662060408201526d0deeedccae440c4f240d2dcc8caf60931b606082015260800190565b6020808252601c908201527f50757263686173652065786365656473206d617820616c6c6f77656400000000604082015260600190565b6020808252602f908201527f455243373231413a20756e61626c6520746f2064657465726d696e652074686560408201526e1037bbb732b91037b3103a37b5b2b760891b606082015260800190565b6020808252601b908201527f416c6c20746f6b656e732068617665206265656e206d696e7465640000000000604082015260600190565b6020808252602d908201527f455243373231413a20617070726f76656420717565727920666f72206e6f6e6560408201526c3c34b9ba32b73a103a37b5b2b760991b606082015260800190565b60208082526022908201527f455243373231413a207175616e7469747920746f206d696e7420746f6f2068696040820152610ced60f31b606082015260800190565b6020808252818101527f43616e6e6f742070757263686173652074686973206d616e7920746f6b656e73604082015260600190565b604051601f8201601f191681016001600160401b0381118282101715613bf157613bf1613d7e565b604052919050565b60006001600160801b0380831681851680830382111561312457613124613d52565b60008219821115613c2e57613c2e613d52565b500190565b600082613c4257613c42613d68565b500490565b6000816000190483118215151615613c6157613c61613d52565b500290565b60006001600160801b0383811690831681811015613c8657613c86613d52565b039392505050565b600082821015613ca057613ca0613d52565b500390565b60005b83811015613cc0578181015183820152602001613ca8565b83811115611ee65750506000910152565b600081613ce057613ce0613d52565b506000190190565b600281046001821680613cfc57607f821691505b60208210811415613d1d57634e487b7160e01b600052602260045260246000fd5b50919050565b6000600019821415613d3757613d37613d52565b5060010190565b600082613d4d57613d4d613d68565b500690565b634e487b7160e01b600052601160045260246000fd5b634e487b7160e01b600052601260045260246000fd5b634e487b7160e01b600052604160045260246000fd5b6001600160e01b031981168114611a1257600080fdfea26469706673582212206d2836e46b02d3e21969dbc8a086e92a143869c69e251d436a8b3a5839d82ca664736f6c63430008010033",
  "immutableReferences": {
    "989": [
      {
        "length": 32,
        "start": 9607
      },
      {
        "length": 32,
        "start": 9649
      },
      {
        "length": 32,
        "start": 10682
      }
    ],
    "2237": [
      {
        "length": 32,
        "start": 4648
      },
      {
        "length": 32,
        "start": 7166
      }
    ]
  },
  "source": "// SPDX-License-Identifier: MIT\n// Made by: NFT Stack\n//          https://nftstack.info\n//\n\npragma solidity ^0.8.1;\n\nimport \"@openzeppelin/contracts/access/Ownable.sol\";\nimport \"@openzeppelin/contracts/utils/cryptography/MerkleProof.sol\";\nimport \"./ERC721A.sol\";\n\ncontract RacingSocialClub is ERC721A, Ownable {\n  using MerkleProof for bytes32[];\n\n  bytes32 public root;\n\n  uint256 public mintPrice = 0.2 ether;\n  uint256 public preSaleMintPrice = 0.18 ether;\n  uint256 public raffleMintPrice = 0.18 ether;\n\n  uint256 private reserveAtATime = 50;\n  uint256 private reservedCount = 0;\n  uint256 private maxReserveCount = 150;\n\n  string _baseTokenURI;\n\n  bool public isRaffleActive = false;\n  bool public isMintActive = false;\n  bool public isPreSaleMintActive = false;\n  bool public isClosedMintForever = false;\n  bool public isSellOpen = false;\n\n  uint256 public maximumMintSupply = 3333;\n  uint256 public maximumAllowedTokensPerPurchase = 3333;\n  uint256 public maximumAllowedTokensPerWallet = 3333;\n  uint256 public allowListMaxMint = 3;\n  uint256 public immutable maxPerAddressDuringMint;\n\n  address private OtherAddress = 0xbc5f78e02Dc124d0Ef5A6207B1C6384f826B413F;\n\n  mapping(address => bool) private _allowList;\n  mapping(address => uint256) private _allowListClaimed;\n  mapping(address => uint256) private _publicMintClaimed;\n\n  event AssetMinted(uint256 tokenId, address sender);\n  event SaleActivation(bool isMintActive);\n\n  constructor(\n    string memory baseURI,\n    uint256 maxBatchSize_,\n    uint256 collectionSize_\n  ) ERC721A(\"Racing Social Club\", \"RSC\", maxBatchSize_, collectionSize_) {\n    setBaseURI(baseURI);\n    maxPerAddressDuringMint = maxBatchSize_;\n  }\n\n  modifier saleIsOpen {\n    require(totalSupply() <= maximumMintSupply, \"Sale has ended.\");\n    _;\n  }\n\n  modifier onlyAuthorized() {\n    require(owner() == msg.sender);\n    _;\n  }\n\n  modifier callerIsUser() {\n    require(tx.origin == msg.sender, \"The caller is another contract\");\n    _;\n  }\n\n  function setMaximumAllowedTokens(uint256 _count) public onlyAuthorized {\n    maximumAllowedTokensPerPurchase = _count;\n  }\n\n  function setMaximumAllowedTokensPerWallet(uint256 _count) public onlyAuthorized {\n    maximumAllowedTokensPerWallet = _count;\n  }\n\n  function setMintActive(bool val) public onlyAuthorized {\n    isMintActive = val;\n    emit SaleActivation(val);\n  }\n\n  function setMaxMintSupply(uint256 maxMintSupply) external  onlyAuthorized {\n    maximumMintSupply = maxMintSupply;\n  }\n\n  function setRaffleActive(bool _isRaffleActive) public onlyAuthorized {\n    isRaffleActive = _isRaffleActive;\n  }\n\n  function setIsPreSaleMintActive(bool _isPreSaleMintActive) external onlyAuthorized {\n    isPreSaleMintActive = _isPreSaleMintActive;\n  }\n\n  function setIsSellOpen(bool _isSellOpen) external onlyAuthorized {\n    isSellOpen = _isSellOpen;\n  }\n\n  function setAllowListMaxMint(uint256 maxMint) external  onlyAuthorized {\n    allowListMaxMint = maxMint;\n  }\n\n  function addToAllowList(address[] calldata addresses) external onlyAuthorized {\n    for (uint256 i = 0; i < addresses.length; i++) {\n      require(addresses[i] != address(0), \"Can't add a null address\");\n      _allowList[addresses[i]] = true;\n      _allowListClaimed[addresses[i]] > 0 ? _allowListClaimed[addresses[i]] : 0;\n    }\n  }\n\n  function checkIfOnAllowList(address addr) external view returns (bool) {\n    return _allowList[addr];\n  }\n\n  function removeFromAllowList(address[] calldata addresses) external onlyAuthorized {\n    for (uint256 i = 0; i < addresses.length; i++) {\n      require(addresses[i] != address(0), \"Can't add a null address\");\n      _allowList[addresses[i]] = false;\n    }\n  }\n\n  function allowListClaimedBy(address owner) external view returns (uint256){\n    require(owner != address(0), 'Zero address not on Allow List');\n    return _allowListClaimed[owner];\n  }\n\n  function publicMintClaimed(address owner) external view returns (uint256){\n    require(owner != address(0), 'Zero address not on Allow List');\n    return _publicMintClaimed[owner];\n  }\n\n  function setReserveAtATime(uint256 val) public onlyAuthorized {\n    reserveAtATime = val;\n  }\n\n  function setMaxReserve(uint256 val) public onlyAuthorized {\n    maxReserveCount = val;\n  }\n\n  function setMintPrice(uint256 _price) public onlyAuthorized {\n    mintPrice = _price;\n  }\n\n  function setPreSaleMintPrice(uint256 _price) public onlyAuthorized {\n    preSaleMintPrice = _price;\n  }\n\n  function setRaffleMintPrice(uint256 _price) public onlyAuthorized {\n    raffleMintPrice = _price;\n  }\n\n  function setBaseURI(string memory baseURI) public onlyAuthorized {\n    _baseTokenURI = baseURI;\n  }\n\n  function getMaximumAllowedTokens() public view onlyAuthorized returns (uint256) {\n    return maximumAllowedTokensPerPurchase;\n  }\n\n  function getMintPrice() external view returns (uint256) {\n    return mintPrice;\n  }\n\n  function getPreSaleMintPrice() external view returns (uint256) {\n    return preSaleMintPrice;\n  }\n\n  function getRaffleMintPrice() external view returns (uint256) {\n    return raffleMintPrice;\n  }\n\n  function getIsClosedMintForever() external view returns (bool) {\n    return isClosedMintForever;\n  }\n\n  function setIsClosedMintForever() external onlyAuthorized {\n    isClosedMintForever = true;\n  }\n\n  function setRoot(bytes32 _root) public onlyAuthorized {\n    root = _root;\n  }\n\n  function getReserveAtATime() external view returns (uint256) {\n    return reserveAtATime;\n  }\n\n  function getTotalSupply() external view returns (uint256) {\n    return totalSupply();\n  }\n\n  function getRoot() external view returns (bytes32) {\n    return root;\n  }\n\n  function getContractOwner() public view returns (address) {\n    return owner();\n  }\n\n  function _baseURI() internal view virtual override returns (string memory) {\n    return _baseTokenURI;\n  }\n\n  function reserveNft() public onlyAuthorized {\n    require(reservedCount <= maxReserveCount, \"Max Reserves taken already!\");\n    require(totalSupply() + reserveAtATime <= maximumMintSupply, \"Total supply exceeded.\");\n    require(totalSupply() <= maximumMintSupply, \"Total supply spent.\");\n\n    reservedCount += reserveAtATime;\n    _safeMint(msg.sender, reserveAtATime);\n  }\n\n  function reserveToCustomWallet(address _walletAddress, uint256 _count) public onlyAuthorized {\n    require(totalSupply() + _count <= maximumMintSupply, \"Total supply exceeded.\");\n    require(totalSupply() <= maximumMintSupply, \"Total supply spent.\");\n\n    _safeMint(_walletAddress, _count);\n  }\n\n  function mint(address _to, uint256 _count) public payable saleIsOpen callerIsUser {\n    if (msg.sender != owner()) {\n      require(isMintActive, \"Sale is not active currently.\");\n    }\n\n    if(_to != owner()) {\n      require(balanceOf(_to) + _count <= maximumAllowedTokensPerWallet, \"Max holding cap reached.\");\n    }\n\n    require(_publicMintClaimed[msg.sender] + _count <= maximumAllowedTokensPerWallet, \"Purchase exceeds max allowed\");\n    require(totalSupply() + _count <= maximumMintSupply, \"Total supply exceeded.\");\n    require(totalSupply() <= maximumMintSupply, \"Total supply spent.\");\n    require(\n      _count <= maximumAllowedTokensPerPurchase,\n      \"Exceeds maximum allowed tokens\"\n    );\n    require(\n      numberMinted(msg.sender) + _count <= maxPerAddressDuringMint,\n      \"can not mint this many\"\n    );\n    require(!isClosedMintForever, \"Mint Closed Forever\");\n    require(msg.value >= mintPrice * _count, \"Insuffient ETH amount sent.\");\n\n    _publicMintClaimed[msg.sender] += _count;\n    _safeMint(_to, _count);\n  }\n\n  function raffleMint(uint256 _count, bytes32[] memory _proof) public payable saleIsOpen {\n    bytes32 leaf = keccak256(abi.encodePacked(msg.sender));\n\n    require(isRaffleActive, \"Raffle is not active\");\n    require(_proof.verify(root, leaf), \"invalid proof\");\n    require(totalSupply() < maximumMintSupply, \"All tokens have been minted\");\n    require(_count <= allowListMaxMint, \"Cannot purchase this many tokens\");\n    require(_allowListClaimed[msg.sender] + _count <= allowListMaxMint, \"Purchase exceeds max allowed\");\n    require(msg.value >= raffleMintPrice * _count, \"Insuffient ETH amount sent.\");\n    require(!isClosedMintForever, \"Mint Closed Forever\");\n    _allowListClaimed[msg.sender] += _count;\n\n    _safeMint(msg.sender, _count);\n  }\n\n  function preSaleMint(uint256 _count) public payable saleIsOpen {\n    require(isPreSaleMintActive, 'Pre Sale Mint is not active');\n    require(_allowList[msg.sender], 'You are not on the Allow List');\n    require(totalSupply() < maximumMintSupply, 'All tokens have been minted');\n    require(_count <= allowListMaxMint, 'Cannot purchase this many tokens');\n    require(_allowListClaimed[msg.sender] + _count <= allowListMaxMint, 'Purchase exceeds max allowed');\n    require(msg.value >= preSaleMintPrice * _count, 'Insuffient ETH amount sent.');\n    require(!isClosedMintForever, 'Mint Closed Forever');\n    _allowListClaimed[msg.sender] += _count;\n\n    _safeMint(msg.sender, _count);\n  }\n\n  function numberMinted(address owner) public view returns (uint256) {\n    return _numberMinted(owner);\n  }\n\n  function walletOfOwner(address _owner) external view returns(uint256[] memory) {\n    uint tokenCount = balanceOf(_owner);\n    uint256[] memory tokensId = new uint256[](tokenCount);\n\n    for(uint i = 0; i < tokenCount; i++){\n      tokensId[i] = tokenOfOwnerByIndex(_owner, i);\n    }\n    return tokensId;\n  }\n\n  function withdraw() external onlyAuthorized {\n    uint balance = address(this).balance;\n    payable(OtherAddress).transfer(balance * 10000 / 10000);\n    payable(owner()).transfer(balance * 0 / 10000);\n  }\n}",
  "sourcePath": "/Users/nftstack/Documents/GitHub/racing-social-club-local/contracts/RacingSocialClub.sol",
  "compiler": {
    "name": "solc",
    "version": "0.8.1+commit.df193b15.Emscripten.clang"
  },
  "schemaVersion": "3.4.7",
  "updatedAt": "2022-06-24T11:14:49.271Z",
  "devdoc": {
    "kind": "dev",
    "methods": {
      "approve(address,uint256)": {
        "details": "See {IERC721-approve}."
      },
      "balanceOf(address)": {
        "details": "See {IERC721-balanceOf}."
      },
      "getApproved(uint256)": {
        "details": "See {IERC721-getApproved}."
      },
      "isApprovedForAll(address,address)": {
        "details": "See {IERC721-isApprovedForAll}."
      },
      "name()": {
        "details": "See {IERC721Metadata-name}."
      },
      "owner()": {
        "details": "Returns the address of the current owner."
      },
      "ownerOf(uint256)": {
        "details": "See {IERC721-ownerOf}."
      },
      "renounceOwnership()": {
        "details": "Leaves the contract without owner. It will not be possible to call `onlyOwner` functions anymore. Can only be called by the current owner. NOTE: Renouncing ownership will leave the contract without an owner, thereby removing any functionality that is only available to the owner."
      },
      "safeTransferFrom(address,address,uint256)": {
        "details": "See {IERC721-safeTransferFrom}."
      },
      "safeTransferFrom(address,address,uint256,bytes)": {
        "details": "See {IERC721-safeTransferFrom}."
      },
      "setApprovalForAll(address,bool)": {
        "details": "See {IERC721-setApprovalForAll}."
      },
      "supportsInterface(bytes4)": {
        "details": "See {IERC165-supportsInterface}."
      },
      "symbol()": {
        "details": "See {IERC721Metadata-symbol}."
      },
      "tokenByIndex(uint256)": {
        "details": "See {IERC721Enumerable-tokenByIndex}."
      },
      "tokenOfOwnerByIndex(address,uint256)": {
        "details": "See {IERC721Enumerable-tokenOfOwnerByIndex}. This read function is O(collectionSize). If calling from a separate contract, be sure to test gas first. It may also degrade with extremely large collection sizes (e.g >> 10000), test for your use case."
      },
      "tokenURI(uint256)": {
        "details": "See {IERC721Metadata-tokenURI}."
      },
      "totalSupply()": {
        "details": "See {IERC721Enumerable-totalSupply}."
      },
      "transferFrom(address,address,uint256)": {
        "details": "See {IERC721-transferFrom}."
      },
      "transferOwnership(address)": {
        "details": "Transfers ownership of the contract to a new account (`newOwner`). Can only be called by the current owner."
      }
    },
    "version": 1
  },
  "userdoc": {
    "kind": "user",
    "methods": {},
    "version": 1
  }
}